:040000000CEF00F011
:10000800B4B051EF00F0B8B0B890C06B04681000FD
:1000180057ED00F05DED00F075ED00F07FED00F0BC
:1000280090EC00F090EC00F0C38690EC00F090ECBF
:1000380000F0C39614EF00F0AF900A0E016E006E48
:1000480026EF00F00401000EFB6F000EFA6F00446B
:1000580045EC00F004B216EF00F003B216EF00F022
:10006800C06E056E90EC00F0012E42EF00F03DEFFF
:1000780000F0022E20EF00F016EF00F0002A26EF25
:1000880000F0F926810C420C240C180C000C180CFA
:10009800240C420C810C000C1200B4900550C06F67
:1000A80003680BEF00F00001600EAD6F020EB16F38
:1000B80012000401D397C387286BCB97D395CB85C0
:1000C80029850401CF990899C78909890401CE9720
:1000D800006BC68701870401D069C06B106BC86BC1
:1000E80012000201030E3E6F02010C0E3F6F020167
:1000F8002A0E406F1200D68A0301639168816C81D1
:10010800D690AF909F80D692B490A480D694B890A1
:10011800A880D68ED68C1200FA0E076EF90E066EDF
:100128000000062E94EF00F0072E92EF00F0120068
:020000040030CA
:10000000EC0D3FFF9FFFFFFFFFFFFFFFFFFFFFFF25
:10001000FFFFFFFFFFFFFFFFFFFFFFFFFFFFFFFFF0
:03002000FFFFFFE0
:00000001FF
