:10000000DBED00F0E2ED00F0BEA68BEF00F0F2ECCD
:10001000FFF0F2ECFFF0400EC16FF2ECFFF0F2ECFB
:10002000FFF0CEA68BEF00F0F2ECFFF0F2ECFFF069
:10003000790EC16FF2ECFFF0F2ECFFF0CEA68BEF81
:1000400000F0F2ECFFF0F2ECFFF0240EC16FF2ECE6
:10005000FFF0F2ECFFF0CEA68BEF00F0F2ECFFF039
:10006000F2ECFFF0300EC16FF2ECFFF0F2ECFFF0BB
:10007000CEA68BEF00F0F2ECFFF0F2ECFFF0190EE1
:10008000C16FF2ECFFF0F2ECFFF0CEA68BEF00F0C8
:10009000F2ECFFF0F2ECFFF0120EC16FF2ECFFF0A9
:1000A000F2ECFFF0CEA68BEF00F0F2ECFFF0F2ECFA
:1000B000FFF0020EC16FF2ECFFF0F2ECFFF0CEA603
:1000C0008BEF00F0F2ECFFF0F2ECFFF0780EC16F76
:1000D000F2ECFFF0F2ECFFF0CEA68BEF00F0F2ECCA
:1000E000FFF0F2ECFFF0000EC16FF2ECFFF0F2EC6B
:1000F000FFF0CEA68BEF00F0F2ECFFF0F2ECFFF099
:10010000180EC16FF2ECFFF0F2ECFFF0CEA68BEC14
:1001100000F007EF00F0F2ECFFF0F2ECFFF0080E59
:10012000C16FF2ECFFF0F2ECFFF0CEB607EF00F09B
:10013000F2ECFFF0F2ECFFF0030EC16FF2ECFFF017
:10014000F2ECFFF0CEB607EF00F0F2ECFFF0F2ECCD
:10015000FFF0460EC16FF2ECFFF0F2ECFFF0CEB60E
:1001600007EF00F0F2ECFFF0F2ECFFF0210EC16FB0
:10017000F2ECFFF0F2ECFFF0CEB607EF00F0F2EC9D
:10018000FFF0F2ECFFF0040EC16FF2ECFFF0F2ECC6
:10019000FFF0CEB607EF00F0F2ECFFF0F2ECFFF06C
:1001A0000E0EC16FF2ECFFF0F2ECFFF0CEB607EFEF
:1001B00000F08BEF00F00001600EAD6F0001020E49
:1001C000B16F12000401D169C169186BC96B0401D8
:0A01D000CE69006BC687018712009C
:020000040001F9
:10FFE400FA0E016EF90E006E0000002EF6EFFFF01F
:0CFFF400012EF4EFFFF0120000EF00F00F
:020000040030CA
:10000000EC0D3FFF9FFFFFFFFFFFFFFFFFFFFFFF25
:10001000FFFFFFFFFFFFFFFFFFFFFFFFFFFFFFFFF0
:03002000FFFFFFE0
:00000001FF
